:100000000000042079030000610300006303000086
:1000100065030000670300006903000000000000A2
:100020000000000000000000000000006B03000062
:100030006D030000000000006F030000710300006A
:100040007303000021580000F12200007303000038
:1000500073030000730300004D21000073030000D0
:10006000856E00007303000073030000730300003B
:1000700073030000730300007303000073030000A8
:1000800073030000F9120000730300007303000003
:1000900095130000D9610000730300007303000092
:1000A0007303000073030000730300007303000078
:1000B0007303000073030000000000000000000054
:1000C0007303000073030000730300007303000058
:1000D0007303000073030000730300007303000048
:1000E00073030000730300007303000000000000AE
:1000F0000000000073030000000000007303000014
:1001000000000000000000000000000000000000EF
:1001100000000000000000000000000000000000DF
:1001200000000000000000000000000000000000CF
:1001300000000000000000000000000000000000BF
:1001400000000000000000000000000000000000AF
:10015000000000000000000000000000000000009F
:10016000000000000000000000000000000000008F
:10017000000000000000000000000000000000007F
:10018000000000000000000000000000000000006F
:10019000000000000000000000000000000000005F
:1001A000000000000000000000000000000000004F
:1001B000000000000000000000000000000000003F
:1001C000000000000000000000000000000000002F
:1001D000000000000000000000000000000000001F
:1001E000000000000000000000000000000000000F
:1001F00000000000000000000000000000000000FF
:10020000364937480A1A02D0072291438D463549AC
:1002100035480A1A06D00722914381F30988022241
:1002200082F3148831483249324A00F045F83248A6
:100230003249334A00F040F832483349334A00F03B
:100240003BF833483349344A00F036F833483449F0
:10025000344A00F031F834483449354A00F02CF87B
:1002600034483549354A00F027F8354835490022E9
:1002700000F02DF834483549002200F028F83448C1
:100280003449091A082903DB0022026004300160A6
:10029000314A90471F482049884205D002680430FF
:1002A00003B4904703BCF7E700208646EC460020E5
:1002B00000212A4A9047FEE7884207D0521A05D00B
:1002C000037801300B700131013AF9D1704788424F
:1002D00002D002700130FAE77047000000000420ED
:1002E00000E003200000042000000420D476000079
:1002F0000000002050000020D8030000D8030000B8
:1003000096710000D476000000000020000000205C
:10031000E4710000E4710000E4710000E471000089
:10032000E4710000E4710000E4710000E471000079
:10033000D4760000247700005000002050000020F8
:1003400050000020970D0020980D0020980D0020EF
:10035000980D0020982D0020A10300008930000096
:10036000FEE7FEE7FEE7FEE7FEE7FEE7FEE7FEE765
:10037000FEE7FEE7704700BF1048804710484FF087
:100380000701884385460F4880470F48016841F4BC
:1003900070010160BFF34F8FBFF36F8FFFF730BF66
:1003A0000A480B490B4A884207D0521A05D00378F5
:1003B00001300B700131013AF9D17047750300002B
:1003C000000004201132000088ED00E0E47100001C
:0803D0000000002000000020E5
:1003D800F0B595B01C46164608460D4601F0ABFC34
:1003E8001A9B0D93CDE9086400242346082205A929
:1003F80028460A948DF82C400C9401F0BAFC079B0F
:100408000293BDF81830ADF80C30BDF81A30ADF8CD
:100418000E309DF814308DF8114003F00302012AC4
:100428001DD1BDF81440059EC3F3C203C4F3831461
:100438008DF81030A20008230EA9284601F099FC77
:10044800C6F3952608AB0093224602AB0EA93046A8
:1004580000F0D0FB284601F072FC15B0F0BD022A6E
:10046800F8D1BDF81640C3F3C203A4098DF81030C3
:100478000827082C264628BF08263B4632460EA9E0
:10048800284601F076FCA41B08AB02AA31460EA848
:10049800374400F013FC002CEBD1DBE7014B0122C1
:1004A8001A707047910000207047000070B50E4D1B
:1004B80006460FCD88B06C460FC495E80F0084E857
:1004C8000F0008A9002E4FF00603084A41F8203D06
:1004D80008BF0022064801F095FC08B100F05EFE56
:1004E800044B1E7008B070BDE4710000A504000044
:1004F800000000205000002007B5044B0093044A78
:100508004023FFF765FF03B05DF804FB1D050000FD
:100518005100002038B50D4B0D4D002018700D48C6
:1005280004782D5DD2B21C4665B1043002F046FB5A
:1005380008B100F033FE084B1A7812B12378002B6B
:10054800FBD038BD0C3002F017F9F1E7910000201C
:1005580094070020000000205000002008B508483B
:10056800084A0378D35C3BB1043002F0D1FA00208A
:10057800BDE80840FFF79ABF0C3002F0A7F8F6E78D
:1005880000000020940700200120FFF78FBF000023
:1005980008B5FFF7F9FF0421034800F099FA034B67
:1005A80001225A7108BD00BFC0710000140000206C
:1005B800037813F0040216D003F00303012B03D0D1
:1005C800022B09D0012070470A6800880232C0F364
:1005D800831002440A60F5E70B684288023303EB94
:1005E80092130B60EEE71046704700002DE9F04FBC
:1005F800484C87B00F460546861C0020019201F042
:10060800C1F823683B60D4E901231344226801330D
:100618009B1A04F21C4704F5836A04F21448B34297
:1006280019D3019A0023002A6CD0012262F3010336
:1006380043F0040365F389132168A2680A40033272
:100648000E44002044F82230266001F09DF8012075
:1006580007B0BDE8F08F0121384601F0B7F85046E1
:1006680001F0CAF8404601F0C7F80DF118096068B2
:10067800D4F808B049F8100D00EA0B00033004EB79
:1006880080004946FFF794FF029BB0B90BEA0302CA
:1006980004EB8202D16803919A1C013303EA0B0B25
:1006A80004EB8B0C01F00303012B0292DCF80CB075
:1006B80020D0022B04D083460BE00BEA0300DDE7D1
:1006C800BDF80E309B0903334FEA1B4B02EB930333
:1006D8000293404601F093F808B1029B63605946C3
:1006E800384601F073F8D4E9012313442268013332
:1006F8009B1A94E7BDF80C30C3F383134FEA1B4BE6
:100708001344E5E7022262F3010343F0040365F3AF
:100718009F5391E7640100200B4B0C48FF2210B552
:100728009A600022C3F81824C3E90022C3F81424ED
:1007380083F8202401F0B8FA044610B9044801F0FF
:1007480023FB204610BD00BF64010020D0710000CB
:100758002472000030B50A4C71B10A4A0A49121BCA
:10076800D20800239A4201D1002030BD31F823502D
:10077800854202D00133F5E7034654F83300F4E725
:1007880098710000C071000000000020094B013979
:1007980003EBC000032909D8DFE801F00A020406C8
:1007A80004207047007970474079704700207047EF
:1007B8000220704798710000034BD3E90030C31A38
:1007C80058425841704700BF640100202DE9F043AA
:1007D80085B0FFF7F1FF0646002840F0F9807D4D0F
:1007E800C5F81804BFF34F8F6868AC6804AF47F8C2
:1007F800100D2040033005EB80003946FFF7D8FE86
:10080800009B18B1D5F81824002A5FD004EA030227
:10081800991C013305EB8202234005EB8303D26860
:10082800DB68029302F00303022B0192009162D16C
:10083800BDF8063068484FEA9318B8F1500FC14622
:1008480028BF4FF0500969F38F1309F10801ADF87B
:10085800063001F041FA0746002800F0A48001F0B4
:100868006AFA01A900230822384601F077FA0099AC
:1008780024EA01060136B600B14535D95FFA89F98F
:100888007EB3F6B2A9EB0609214003315FFA89F479
:10089800B146524E05EB810108234A46384601F01D
:1008A8005DFA36B109F1080322463146384601F0AF
:1008B80055FA009B08F1030803EB98030093D5F859
:1008C8001834002B4BD1D5F810445BE02A689A42C3
:1008D80004D86A60304605B0BDE8F08304EA030036
:1008E80088E73E493446D7E72140033108234A4682
:1008F80005EB8101DAE7012B55D1BDF80430364804
:10090800C3F38311062928BF062161F38913023135
:100918008900ADF8043001F0DFF90746002842D01D
:1009280001F009FA0023082201A9384601F016FA55
:100938000026BDF80420C2F38312B31C96424FEA86
:100948008303BCD200994A1C21400331009205EB75
:1009580081010422384601F001FA0136E9E73846F8
:1009680001F0EDF9FFF728FF80F00100C6B2B1E70A
:10097800E3685B7923B1236839461B6820469847AA
:10098800E3681C68002CF3D1384601F0D8F92046FA
:1009980000F0F8FED5F818340BB9009B6B60002006
:1009A80000F0F2FEDEE7D5F8104454B90C4B0D48C0
:1009B8000D49C01AC008000440F0020000F06EF8AB
:1009C800D0E7236820469B689847E3681C68ECE7F3
:1009D80000267FE764010020D0710000700100202C
:1009E80098710000B8710000307200002DE9F74FCF
:1009F800284C80460F46924601A9012218469B467C
:100A0800D4F80890FFF7F2FD88B3019D0026A91CD1
:100A18005E4506EB010234D100211F4800F0B6FE06
:100A280080F310006A1C02EA090204EB8202000447
:100A380005EA0903033340EA1840D06014F823207C
:100A480068F3C50204F8232034F8232066F38912DA
:100A580024F8232054F82320012167F39F2244F827
:100A6800232061F301026FF3820204F8232094F833
:100A780020341BB1FFF7AAFE0028FBD103B0BDE864
:100A8800F08F09EA020204EB82025AF82630D3609A
:100A98000136BDE7640100208005002000231A46C6
:100AA800FFF7A4BF13B502AC012344F8042D224676
:100AB800FFF79CFF02B010BD1FB5CDE90123069BCF
:100AC800039301AA0323FFF791FF05B05DF804FB28
:100AD80030B50F49D1F81024002314463CB9C46836
:100AE800237152B9C1F810042260184630BDE46879
:100AF80025799D4206D02468F0E7D2681168216004
:100B08001060F2E701330A2BE7D14FF0FF33ECE72F
:100B180064010020094A38B50123D2F8104482F84C
:100B280020341D4604B938BDE3685D71236820464A
:100B38005B689847E3681C68F4E700BF640100201D
:100B4800037A052B10B50C460FD0437A23B1084A17
:100B58000849204600F0ADFE0749204600F0A9FEEE
:100B68002046BDE8104000F099BE002AF8D0F3E70F
:100B78007B72000080720000A0720000C38873B509
:100B880004460D4633B1144A00921449144A2846C3
:100B980000F08FFE217A05291CD0637A4BB1A0881A
:100BA800FFF7F4FD0F4B104953F82020284600F0BA
:100BB80080FE227A0D4BA08853F822600021FFF7AF
:100BC800C9FD0B4903463246284602B0BDE87040CD
:100BD80000F06FBE02B070BD7B7200008B72000027
:100BE800837200004872000080720000B07200003A
:100BF800A37200002DE9F04385B01F460C9D002329
:100C080006460C46904695F80C902B7329463846B4
:100C1800FFF7B4FFB8F1060F09D8DFE808F00412AF
:100C2800181F283340003146284600F042FE0022B3
:100C380029463846FFF784FF85F80C9005B0BDE8D3
:100C4800F08322683146284600F033FEEFE7D4E906
:100C580000233146284600F02CFEE8E7A3680093FD
:100C68003146D4E90023284600F023FEDFE7E36895
:100C78000193A36800933146D4E90023284600F085
:100C880018FED4E723690293E3680193A3680093ED
:100C98003146D4E90023284600F00BFEC7E7636914
:100CA800039323690293E3680193A3680093314691
:100CB800D4E90023284600F0FCFDB8E708292DE90F
:100CC800F84F80460E4617461C4636D8002593F83E
:100CD8000C901D7319461046FFF750FFDFF87CA0F3
:100CE800DFF87CB0AE422AD918F8052059462046CC
:100CF80000F0DFFD0135082DF4D11649DFF864B0A6
:100D0800204600F0D6FD0025AE421DD918F805A0F2
:100D1800504606F0ABF9002814BF52462E22594619
:100D2800204600F0C6FD0135082DEDD101222146EF
:100D38003846FFF705FF84F80C90BDE8F88F514658
:100D4800204600F0B6FDD5E70349204600F0B1FD86
:100D5800E9E700BF7672000074720000727200004A
:100D68006C72000078720000074B1B5C1F2B8ABF57
:100D7800064A4FF0A04203F01F03D2F80405D840FA
:100D8800C04300F0010070470F73000000030050DB
:100D9800074B1B5C1F2B86BF03F01F0305494FF051
:100DA800A041012202FA03F3C1F80C35704700BFD5
:100DB8000F73000000030050074B1B5C1F2B86BFFE
:100DC80003F01F0305494FF0A041012202FA03F383
:100DD800C1F80835704700BF0F73000000030050CA
:100DE80008B50020FFF7E8FF0120FFF7E5FF022024
:100DF800FFF7E2FF0320BDE80840FFF7DDBF08B5B5
:100E08000020FFF7C5FF0120FFF7C2FF0220FFF710
:100E1800BFFF0320BDE80840FFF7BABF0A4B185CC4
:100E28001F288ABF094B4FF0A04300F01F00D3F8DA
:100E380004250121814021EA02000A40C3F808057F
:100E4800C3F80C25704700BF0F7300000003005063
:100E5800034BD3F810056FEA901000F001007047BB
:100E680000030050263818BF4FF0FF3070470000CD
:100E7800C10710B5044642D54FF08043D3F8403639
:100E8800DA072ED54FF01023D3F8043303F0070305
:100E9800072B26D11D4B0122C3F80425D3F80024C3
:100EA800002AFBD04FF01021D1F8042322F00702CA
:100EB80042F00402C1F804230022C3F80425134AAF
:100EC800D2F80034002BFBD0BFF34F8F1049114BE1
:100ED800CA6802F4E0621343CB60BFF34F8F00BFD0
:100EE800FDE74FF0A0420C490323C2F81837C2F8B7
:100EF8002037C1F82437C2F83037FFF771FFA3074E
:100F080042BF054B0C22C3F8182710BD00E0014072
:100F180000ED00E00400FA05000300502DE9F04F51
:100F28003B4F89B000263B4B1B78F5B2AB4202D849
:100F380009B0BDE8F08F384B196811F83500012465
:100F4800A0F12002C0F1200304FA02F924FA03F305
:100F580049EA0309D7E9002304FA00F8CDE9042394
:100F680002EA080203EA0903134301EBC50B4CD05C
:100F7800DDE9042322EA080223EA0903C7E900237A
:100F8800079101F0CFF80799844611F83500A0F1D0
:100F98002002C0F1200324FA03F304FA02F21A43F0
:100FA80004FA00F300931D4B0192DDE90045D3E9F3
:100FB800002314401D4022462B465FFA8CF400257E
:100FC800CDE90445049CA0F12005AC400394049CA1
:100FD800C0F1200124FA01F1039C0C430499039405
:100FE80081400291DDE90245AB4208BFA2420CD123
:100FF8009BF801104B1E59425941A1EB0C02DBF83A
:1010080004305142514103B1984701368BE700BF84
:101018005006002020060020580600204806002020
:101028002DE9F84F0646244800F08AFB002841D1F4
:101038000123A6F12001C6F1200203FA01FB23FADD
:1010480002F203FA06FA1D4BD3E900014BEA020B40
:1010580000EA0A0801EA0B0958EA09021F4623D1E7
:10106800304601F05FF8164BB8B1D3E9000140EA09
:101078000A0441EA0B05C3E90045D7E900234BEA16
:101088000305104B0C4819684AEA0204C7E90045F1
:101098000022BDE8F84F00F011BBD3E9000120EAB7
:1010A8000A0421EA0B05E6E720EA0A0421EA0B050F
:1010B800C3E90045BDE8F88F280600205006002047
:1010C8004806002024060020042A2DE9F34105469D
:1010D8000C4616463AD900F04BFFD8B11C4B1D49B7
:1010E8001D601D4BDFF884801C701C4B00221E60A5
:1010F8000023C1E900231A49C1E90023013CE4B2F5
:1011080000260327FF2C0CD1164A1748002100F0AF
:10111800C3FA03E000F0F4FE0028DFD002B0BDE817
:10112800F08123B205EBC30201A992788DF805205E
:1011380015F833008DF8066042468DF8047000F00B
:1011480021FF013CE4B20028DCD0E7E70720E5E70F
:10115800580600204806002020060020240600200B
:1011680050060020250F000014730000291000000D
:1011780070B5084D084E00242B789C4201D30020FE
:1011880070BD3368012113F8340000F081FF013489
:10119800F2E700BF20060020580600201FB50021F6
:1011A800039001AA44F20100CDE9011100F004F80E
:1011B80005B05DF804FB000010B572B6FFF7AAFC95
:1011C800FFF704FB0028FBD1104B114C1149E41A1E
:1011D800E408240444F00100FFF760FC0E4B1B6890
:1011E800DB0700D500BE0D4944F00200FFF756FCAE
:1011F800BFF34F8F0A490B4BCA6802F4E0621343EE
:10120800CB60BFF34F8F00BFFDE700BF98710000B0
:10121800B871000018730000F0ED00E024730000BE
:1012280000ED00E00400FA05094A5378917801338B
:10123800DBB2994208BF0023117899421FBF03709F
:101248005078182303FB002014BF04300020704797
:101258005C06002037B5044600200D4600F092FADF
:101268000DF10700FFF7E0FF90B10570094B9DF8FD
:10127800072044605A700024002000F085FA24B941
:10128800054B4FF48012C3F80021204603B030BD4F
:101298000424F1E75C06002000E100E0024B4FF473
:1012A8003C6043F0010318474073000038B50C4B0D
:1012B8000C4C4FF40032C3F8802001254FF48033E2
:1012C800C4F84833C4F808336560FFF7E7FF064BF6
:1012D800A56000241C60FFF7E1FF044B1C7038BDBB
:1012E80000E100E0001001407807002069070020B5
:1012F800F8B51F4B1F491B680025C1F84051C1F8BC
:101308004451C1F84851C1F84C51C1F80051C1F8D5
:1013180004514BB3D1F8044517490968641A24F0FD
:101328007F442F461A68A24209D8A41A15441A7C89
:10133800DE691AB11F74D3E905209047AEB90F4B87
:101348000F4A197813788B4205D10133DBB2022B8F
:1013580008BF0023137012780A4B43F822500A4B37
:101368004FF48012C3F80021F8BD3346DAE700BF16
:101378007C07002000100140780700207407002037
:10138800750700206C07002000E100E02DE9F74F09
:101398009E4A9F49137809789E4D99423CD0013363
:1013A800DBB2022B08BF002313709B4912789B4BBA
:1013B8000F6853F822003B1823F07F4300220B608C
:1013C8002B6816461446944613B942B12B6006E0C2
:1013D800196881420ED902B12B60091A19604FF0C1
:1013E80001082B68DFF83CA200930027BEB9DFF89C
:1013F8003CB260E0401A0C44D968C3F800C0D3F886
:101408001CE031B13A1922F07F42C3E90121DE61C3
:101418001E4601227346D7E70026B046E1E7344668
:10142800F6697D4A63681268DFF804C2A068991AF1
:1014380021F07F41614500F2A5800144216001222D
:1014480022742A680023C4E90133E361002A40F0CA
:10145800A2802C60CAE75A1C9BF80210D2B29142B3
:101468008BF8002004BF00228BF80020182202FB12
:1014780003B32A6819799C68022974D003297ED09D
:10148800012918D1217CB1B9DA6862601A69A260B1
:101498005A699B69A361624BE2601B78002BC0D03C
:1014A8006160BEE79C4200F093809946DB69002B9F
:1014B800F8D1002323749BF800309BF801209A424E
:1014C800C9D12B682FB9009A934202D1B8F1000F05
:1014D80043D0002B79D0D3F800A0524D4E4BD5F80D
:1014E80004751C68DFF84C813E1B98F8003026F024
:1014F8007F4603369BB94FF48033C5F84433C5F8AB
:101508000433494B4FF400324FF00109C3F88021EE
:101518001A60C5F80090FFF7C1FE88F80090B24540
:101528002CBF5444A41924F07F44C5F84045D5F88D
:101538000435DB1B23F07F43E41B033324F07F4493
:10154800A3420AD9D5F80435C5F84035FFF7A6FEF9
:10155800354B4FF40032C3F80021314B00221A708A
:1015680003B0BDE8F08F13469146A0E71174D26925
:101578000123002AFAD1002B9DD02A609BE7002383
:101588001946F6E7D31A23F07F43834234BFC31AC0
:101598000023236053E721681368994213D8591A26
:1015A8001160E26155E7091AD8691A4638B103464D
:1015B80018688842F7D3401A186018461346216005
:1015C800E061DC6112E71346F2E7FFF76FFEC4E75C
:1015D8004C450DD1D3692B6053B90F4801920121B5
:1015E800CAF8081003600E4B1970FFF757FE019AEE
:1015F800E1692368C9F81C1011B1086803440B603D
:101608002B689A4218BF012753E700BF74070020D0
:10161800750700207C070020780700206C07002051
:10162800680700200010014000E100E05C0600208F
:10163800FEFF7F006907002008B5FFF737FE104B53
:1016480000200B2218809A700E4B18600E4B1870F1
:101658000E4B18700E4B4FF48012C021C3F8802136
:1016680083F814131A6002F18042A2F56F22C2F8BF
:10167800080583F81113074BD2F804251A6008BD32
:101688005C0600207C0700207407002075070020F6
:1016980000E100E078070020074B9B784BB132B19E
:1016A80028B10368187C20B959745A61704707201B
:1016B80070470820704700BF5C0600202DE9F34101
:1016C8001C4EB37804460D4617468BB380B30429E5
:1016D8002CD9436963B3437C0020012B0CBF884697
:1016E8004FF0000800F04EF80DF10700FFF79CFDE1
:1016F800D0B101230370104B4460D3F80435C0E91E
:101708000487C0E902359DF8073073700024002073
:1017180000F03AF824B9094B4FF48012C3F80021BD
:10172800204602B0BDE8F0810424F0E70724F7E77B
:101738000824F5E75C0600200010014000E100E005
:10174800064A92783AB130B1426922B10022027455
:101758000221FFF77FBD0820704700BF5C0600200C
:1017680072B6024A1368013313607047800700207D
:10177800034A1368013B136003B962B6704700BFA0
:1017880080070020FFF7ECBFFFF7F2BF50E8002FFB
:101798000B4640E8003C9CF0000FF7D1104670471C
:1017A80050E8003F43EA010240E8002C9CF0000F9B
:1017B800F6D11046704750E8002F02EA010340E8CE
:1017C800003C9CF0000FF6D11046704750E8003FEF
:1017D80003EB010240E8002C9CF0000FF6D1104604
:1017E800704750E8003FA3EB010240E8002C9CF052
:1017F800000FF6D1104670470121FFF7D1BF002135
:10180800FFF7D9BF10B590B1D0E9012301689B1A41
:10181800DBB20A60013BDBB2FF2B026802D1002079
:10182800107110BD11684C1C14600B70F2E70E208B
:10183800F7E738B504460020FFF7A4FF226863687D
:101848001168994213D9481E106011F8015CE368C9
:10185800218A01FB0535A36811791B1ADBB299426D
:1018680000D213710020FFF78FFF284638BD0025EE
:10187800F8E738B5054600200C46FFF783FF2A68CD
:101888001368591C1160E968641A298AB4FBF1F4D9
:101898001C700020BDE83840FFF776BF826810B59D
:1018A80004462AB143690168006998470023A36088
:1018B80010BD0EB403B5039929B102AA04AB42F8CE
:1018C800043D00F06BF802B05DF804EB03B070471C
:1018D800826830B40468551C8560A154D0E901328F
:1018E8009A4202D330BCFFF7D9BF30BC7047000022
:1018F8002DE9F84F9946DDE90A431746824688469E
:101908000A460126BA420FD24E4538BF4E4613F05A
:10191800010B01D164B900240125B9F1010F1AD9CD
:1019280009F1FF397D43F8E7B2FBF7F20136E9E741
:101938009B070ED5B9F1000F0CBF30252025A64214
:10194800EAD2013C29465046FFF7C2FF002CF6D1E7
:10195800E1E72025F3E7B8FBF5F39F42E2D9DFF88A
:101968003890B8FBF5F3504619F8031005FB1388B7
:10197800FFF7AEFFB5FBF7F5002DF2D1BBF1000F75
:1019880002D00CB1A64201D3BDE8F88F2021504601
:10199800013CFFF79DFFF4E7467300002DE9F74F80
:1019A800054690460E46002900F03A8116F8011BBC
:1019B800002958D0252940F0D180002702E047F0BF
:1019C80001071646324612F8013B2D2BF7D0302B73
:1019D80004D02B2B05D147F00407F2E747F00207A4
:1019E800EFE700242A2B06F101021BD1D8F80030BA
:1019F800191D1B68C8F800101C44164633782E2B96
:101A08001CD101364FF0000A314611F8012BA2F122
:101A18003000092814D80A2303FB0A23A3F1300A4B
:101A28000E46F1E712F8013CA3F130010929E5D887
:101A38000A2101FB0434303C1646D3E74FF0000A74
:101A4800324612F8011B01F0FB0068281646F8D050
:101A5800692916D054D8582970D00ED825297DD098
:101A68003378002BA2D12B7B002B00F0D98028469D
:101A780003B0BDE8F04FFFF711BF632968D06429B0
:101A8800EED1D8F80020D2F80090111D89EAE97249
:101A9800C8F80010A2EBE9724FF0010B092A61DCCB
:101AA800D34538BFD3462CB1B9F1000F01DB790714
:101AB80000D5013CBA0702D5BAF1000F04D0FB07E4
:101AC80002D4002C54D10024B9F1000F58DAC9F11E
:101AD80000092D212846FFF7FBFE07F00302022A22
:101AE80005D1BAF1000F02D1002C4DD10024CDE967
:101AF800004753460A2249462846FFF7F9FEAFE752
:101B0800732954D016D87029AAD1D8F800301A1DD4
:101B1800C8F80020302128461C68FFF7D9FE782134
:101B28002846FFF7D5FE00220823CDE900322146DA
:101B38001022E1E775292FD0782991D1D8F8001023
:101B48000A1DC8F80020CDE90047534610222CE0B2
:101B5800D8F800301A1D1978C8F800202846FFF771
:101B6800B7FE7DE70A230BF1010B92FBF3F295E731
:101B7800A345A9D220212846013CFFF7A9FEA0E7EA
:101B88007807AAD52B21A5E7A345B0D2302128464E
:101B9800013CFFF79DFEA7E7D8F80010CDE9004704
:101BA8000A1DC8F8002053460A220968A4E7D8F895
:101BB80000301A1DC8F80020F907D3F8009012D594
:101BC8004F46A7EB090B17F8011B41B9A345BFF412
:101BD80047AF20212846013CFFF77AFEF6E7284662
:101BE800FFF776FEEDE7B9F1000F17D0484605F08C
:101BF8009EFA0746BC4200D954B909F1FF3919F8D1
:101C0800011F00293FF42CAF2846FFF761FEF6E7D5
:101C180020212846013CFFF75BFEEBE74F46E9E74A
:101C280003B0BDE8F08F2DE9F047B0F8069044798D
:101C3800D2F800A09DF8208009FB04F4043C064675
:101C48000AEB0300A0420F4688BFA4EB030A191D44
:101C5800C2F800A0B1FBF9F509FB15114DB9A9EBC4
:101C68000104544528BF5446BAF1000F04D1BDE819
:101C7800F0873668013DF1E704317B197018224678
:101C8800B8F1000F0ED001461846AAEB040A05F079
:101C9800F2F9D145254436684C464FF0000128BF7B
:101CA8005446E1E71946F0E7FFF7ACBDF8B54679C9
:101CB8000146721E0546002393422D6803D3002473
:101CC800A64202D8F8BD0133F6E70F682846FFF7A9
:101CD800D0FD01343946F3E72DE9F843068ACD1CD7
:101CE8000746FFF7A6FD043E35440446B5FBF6F566
:101CF800F0B14FF48073EDB28380C680013D076078
:101D080081464FF00008A84512D23846FFF791FDEA
:101D1800064648B163790133637108F10108C9F8CF
:101D2800000007608146EEE72046FFF7BFFF344614
:101D38002046BDE8F88301210430FFF747BD10B500
:101D4800012104460430FFF74CFD10F0FF0F04D1C9
:101D58002046BDE81040FFF7A9BF10BD1FB504AC71
:101D680044F8042D002200922246FFF75CFF04B0DD
:101D780010BD1FB504AC44F8042D01220092224680
:101D8800FFF751FF04B010BD836800225A609A60C3
:101D9800C3E90422DA601A60704700001FB50378AF
:101DA8008DF8003043680193037A8DF80830C368D2
:101DB8000393054A054B684653F8213052F8211021
:101DC800984705B05DF804FB840700208C070020C5
:101DD8001FB503788DF800304368019383688DF848
:101DE8000830C3680393054A054B684653F8213009
:101DF80052F82110984705B05DF804FB84070020CD
:101E08008C070020F0B5194B0678DFF870E043F82E
:101E18002620174B94460A6943F826204B7F0EF874
:101E280006300C4607460FCC89B06D460FC594E8BE
:101E38000F0085E80F001EF80630049653B1BCF178
:101E4800000F0C4A694608BF0022381D00F07EFDCD
:101E580009B0F0BDBCF1000F074A694608BF00226F
:101E680007F10C0000F058FBF2E700BF8C070020D8
:101E780084070020A51D0000D91D0000940700203C
:101E880000F1804000F5C040002382B00360036881
:101E98000193019B02B0704703681F2B83BF03F0B7
:101EA8001F03036001484FF0A04070470003005033
:101EB80007B502AB43F8040D1846FFF7EDFF019B89
:101EC80000EB8300D0F8003723F44033C0F8003724
:101ED800D0F8003743EA0141C0F8001703B05DF8B5
:101EE80004FB0000054B4FF0FF32072843F8202081
:101EF80084BF1B1883F85820704700BF980700203C
:101F080010B5174C94F86A3043BBFF21E21801332F
:101F1800302B82F83010F9D10021C8B2FFF7E2FF68
:101F280001310C29F9D1062200210E4805F0CCF820
:101F38000D4BC02283F806234022C3F880214FF4BA
:101F4800BE701A60FFF79CFF084B4FF00042C3F8C1
:101F58000423012384F86A30002010BD0820FCE720
:101F680098070020FC07002000E100E00060004026
:101F7800034B93F86A00003018BF0120704700BF78
:101F880098070020F7B5404F3B18044693F93030C6
:101F9800002B944675DA8B78C3F34003002B15BFEA
:101FA8000025082508200C20854202D1042003B012
:101FB800F0BD57F8252001324FEA850649D1381976
:101FC80047F825C080F8305013B97B1983F858407A
:101FD8008B785A071BD4D8073DD502A840F8084D7E
:101FE800FFF75AFF009B00EB8300D0F8003723F07F
:101FF8000203C0F800372548E20804F0070C012363
:1020080003FA0CF310F802C043EA0C0383548878EF
:1020180091F800C010F002002AD006F1804303F5C1
:10202800C0432402D3F8102522F44F3222F4407220
:10203800C3F810254FEA0C4CD3F8102504F47C544F
:102048000CF4403C44EA0C041443C3F81045002047
:10205800ADE70135A8E702A84A7840F8044DFFF734
:102068001BFF019B03F5E073920040F82320C2E7B1
:10207800083D3D4495F8604044EA8C1C85F860C0F2
:1020880095E7082093E700BF98070020FC07002089
:1020980073B5224C2518064695F93020072A1ADD13
:1020A800224492F858309B09032B10D102A840F81B
:1020B800046DFFF7F1FE019AD0F81035D340DB0725
:1020C80007D402213046FFF7F3FE02B070BD012BA2
:1020D800F7D00321F6E7D3B2072BF6D8930003F124
:1020E800804303F5C043D3F8100540F00100C3F85E
:1020F800100502F14000800080B2FFF7C1FE002900
:10210800E3D095F9303054F82330002BDDD001238B
:1021180003FA02F2024BC3F80423D6E7980700201B
:102128000060004007B502AB43F8040D1846FFF7FE
:10213800B3FE019BD0F81005D84000F0010003B0B1
:102148005DF804FB2DE9F04F002489B0CDE9024485
:102158005F4A604E604D01211368A2F5C040012B13
:1021680080B206D1D6F804330B4202D0FFF788FEBE
:102178000C430432AA424FEA4101EDD1574B1B6888
:10218800012B0ED14FF4BE70FFF77AFE4FF0A0433B
:1021980044F00044D3F810350293514BD3F810356E
:1021A800039314F0FF0F1AD04E4F00250126344236
:1021B80010D0AB0003F1804303F5C043D3F81005FA
:1021C800D3F8101557F82530C0F30520C1F30141A5
:1021D80003B198470135082D4FEA4606E7D1002C90
:1021E80072DA04AE0023049373604FF0FF33CDE935
:1021F80006333C4F4FF0010800252C467B1993F914
:102208006020531C47D0D2B222F0C00908A84FEA78
:10221800D90300EB030B02F007011BF8080C08FABE
:1022280001F1084237D007EB0900920990F9300014
:1022380057F820A0BAF1000F05D1032A2BD1F05C82
:102248000843F05401E0032AF9D001A8CDF804901E
:10225800FFF722FE019B03F5E07350F823301BF8CB
:10226800180C0842C3F3014305D0022B13D1032AEB
:102278000BD1114604E0032B0DD1032A05D102210D
:102288004846FFF715FE0134E4B2BAF1000F02D058
:1022980011464846D0470135042DAFD1A4B14FF0BF
:1022A800A0430299D3F8102503F540739142D3F85F
:1022B800103502D10399994206D002920393049AE9
:1022C800059B0692079397E709B0BDE8F08F00BF1A
:1022D8000061004000600040206100407C610040D7
:1022E8000003005098070020014B1B68184700BFE7
:1022F8000408002038B50A4B98420D460CD100203E
:10230800FFF740FA074B1C7914B901221D601A71B6
:102318000020FFF739FA0CB9002038BD1120FCE77E
:102328000020004004080020034B984201BF034BE3
:1023380000221A601A71704700200040040800202B
:102348000023435082B043580193019B02B0704769
:102358000A4610B54FF48E71FFF7F2FF136A9168C1
:10236800C95C136A01331362C0F81C1510BD8B6970
:102378000A4610B54FF4847123B9FFF7E1FFD0F88E
:10238800183510BDFFF7DCFF536AD168D0F818057F
:10239800C854536A01335362F3E700001FB50123A1
:1023A8008DF80030044BCDE90110D3E900126846DE
:1023B800904705B05DF804FB0C08002030B54C4A86
:1023C800D2F8043313F4007F85B015464FD0D2F805
:1023D8002431002B4BD04FF492711046FFF7B0FF19
:1023E8004FF40173C2F80833424B93F8291009B926
:1023F800012151603E4902228DF80020D1F8802445
:10240800C1F8802403929A690292DA680192002244
:10241800C3E906226846D3E9001290473448D0F849
:102428001C315BB133490A6A4B699A420A464BD25E
:1024380091F82830002B47D1FFF78AFF2C4AD2F8B1
:10244800443193B14FF4A2711046FFF779FF294B3D
:1024580093F8291009B1012111609A692AB1002263
:102468009A61586AD968FFF799FF05B030BDD5F869
:1024780004335B07D2D5D5F80831002BCED01D4CDC
:102488001B482146FFF773FF636AA2699A422346F5
:10249800C4D1E269E1684AB12369E3600023606A54
:1024A800A261E3616362FFF779FFB7E794F8292037
:1024B8000AB901226A600E4A4FF40170C2F8080393
:1024C80000229A61586AEEE74FF48E710848FFF7C8
:1024D80037FF51690029B1D00023029191688DF826
:1024E8000030019153616846D2E900139847A5E787
:1024F800002000400C0800201F2886BF00F01F00A5
:10250800044B4FF0A04300F5E070022243F820206E
:10251800704700BF000300502DE9F843664B04796B
:1025280091462C2202FB0432064692F82A200D46D8
:102538009846002A40F0BC8060490068FFF7DAFE40
:102548000746002840F0B68029684A1C10D01F2989
:1025580087BF01F01F035A4A0B464FF0A0420120E3
:10256800984003F5E073C2F80805032042F82300F9
:102578006868431C0DD01F288BBF00F01F0303465B
:102588004F4A4FF0A04203F5E0734FF0000C42F8B9
:1025980023C03368AA6995F814C0C3F824256A7D56
:1025A800BCF1010F4CEA0202C3F86C25C3F814050C
:1025B800C3F80C152BD1A968481C0DD01F298BBF57
:1025C80001F01F020A463E484FF0A04002F5E072B3
:1025D8004FF0000C40F822C0E868421C13D01F28B6
:1025E80087BF00F01F0C364A84464FF0A0424FF0D8
:1025F800010E0EFA0CFE0CF5E07CC2F808E54FF06F
:10260800030E42F82CE0C3F80805C3F810152C2374
:10261800634308EB0302C2F804902A6948F80320D0
:10262800B9F1000F31D04FF48E7130682D7FFFF76C
:1026380087FE30684FF4A271FFF782FE3268214BA3
:10264800C2F80433120B53B2002BA8BF03F1604049
:102658004FEA53134FEA4511BABF1B4802F00F0562
:1026680000F561404FEA8303C9B203F16043B4BF88
:10267800415580F8001303F5614302F01F02012160
:1026880001FA02F2C3F880211A6033680422C3F801
:1026980000252C2303FB04830022C3E9062283F8C8
:1026A80029205A61012283F82A203846BDE8F88398
:1026B8000827FAE71127F8E70C080020C5230000CF
:1026C800000300508000020014ED00E02DE9F04105
:1026D80003680479254D0022C3F800252C2202FB4B
:1026E80004520646526872B1214AC3F80823190BEE
:1026F8004AB20120520901F01F0100FA01F120320B
:102708001C4840F82210D3F80C05D3F81485D3F8E8
:102718000815D3F810754FF0FF329042C3F814250E
:10272800C3F80C25C3F80825C3F8102501D0FFF716
:10273800E3FEB8F1FF3F02D04046FFF7DDFE7A1C0A
:1027480002D03846FFF7D8FE4B1C02D00846FFF7E8
:10275800D3FE3068FFF7E8FD2C2303FB0454002365
:1027680084F82A306360BDE8F08100BF0C080020BF
:102778008402020000E100E02DE9F843224F0679C7
:102788004FF02C0909FB067480466569002D37D186
:102798006261A16025624FF48E71006884F8285048
:1027A800FFF7CEFDD8F80000012383602146FFF72C
:1027B800CFFD6368A1462BBBD8F80050226A636935
:1027C8009A4212D3D8F80030D3F81C21002AFBD043
:1027D8000122DA6000202C2303FB067600237361B4
:1027E800BDE8F88394F8283043B9D5F81C31002B9C
:1027F800F8D049462846FFF7ABFDDFE70F20EAE7A8
:102808001120EDE72846EBE70C0800200023435091
:1028180082B043580193019B02B070471FB5012352
:102828008DF80030054B8DF8080001916846D3E912
:102838000012904705B05DF804FB00BF380800207F
:102848007FB5384AD2F82461002E49D010464FF49B
:102858009271FFF7DBFF02238DF80030D2F8803445
:10286800C2F880340393D2F83C358DF808302E4BEB
:10287800DA6801920022C3E906226846D3E9001209
:102888009047284AD2F8443173B14FF4A2711046E8
:10289800FFF7BCFF244B996931B100219961D2F847
:1028A8003C05D968FFF7BAFF1E4AD2F82031ABB110
:1028B8004FF490711046FFF7A9FF1B4B596969B196
:1028C800D2F84C158DF80810002299688DF8002070
:1028D80001915A616846D3E90012904704B070BD6F
:1028E800D2F81031002BCCD04FF488711046FFF786
:1028F8008DFF0D4BD2F83C0599698842C1D1DC693E
:10290800D96864B1D2F8005225F02005C2F8005207
:102918001A699C61DA60DE61FFF780FFB1E79C61AC
:10292800FAE700BF00200040380800201F2886BFB3
:1029380000F01F00044B4FF0A04300F5E0700222A6
:1029480043F82020704700BF000300502DE9F843EA
:102958006A4B06799146242202FB0632044692F815
:1029680020200D469846002A40F0C480644900683B
:10297800FFF7C0FC0746002840F0BE802868421CCC
:1029880010D01F2887BF00F01F035E4A03464FF090
:10299800A0420121994003F5E073C2F8081503210C
:1029A80042F8231069684B1C0DD01F298BBF01F01A
:1029B8001F030B46534A4FF0A04203F5E0734FF054
:1029C800000C42F823C02368AA6995F814C0C3F81C
:1029D80024256A7DBCF1010F4CEA0202C3F86C257C
:1029E800C3F80C05C3F814152BD1A968481C0DD0E1
:1029F8001F298BBF01F01F020A4642484FF0A04032
:102A080002F5E0724FF0000C40F822C0E868421C62
:102A180013D01F2887BF00F01F0C3A4A84464FF096
:102A2800A0424FF0010E0EFA0CFE0CF5E07CC2F845
:102A380008E54FF0030E42F82CE0C3F80805C3F888
:102A480010152423734308EB0302C2F804902A6983
:102A580048F80320B9F1000F3BD04FF48871206883
:102A68002D7FFFF7D3FE4FF490712068FFF7CEFE5D
:102A78004FF492712068FFF7C9FE20684FF4A271E5
:102A8800FFF7C4FE2268204BC2F80433120B53B27E
:102A9800002BA8BF03F160404FEA53134FEA4511DA
:102AA800BABF1A4802F00F0500F561404FEA8303E8
:102AB800C9B203F16043B4BF415580F8001303F570
:102AC800614302F01F02012101FA02F2C3F88021DA
:102AD8001A6023680822C3F80025242303FB068311
:102AE8000022C3E906225A61012283F820203846D1
:102AF800BDE8F8830827FAE71127F8E73808002027
:102B080049280000000300501003020014ED00E003
:102B18002DE9F04103680479254D0022C3F800250A
:102B2800242202FB04520646526872B1214AC3F8B5
:102B38000823190B4AB20120520901F01F0100FABB
:102B480001F120321C4840F82210D3F80C05D3F8C4
:102B58001485D3F80815D3F810754FF0FF3290425A
:102B6800C3F80C25C3F81425C3F80825C3F81025A5
:102B780001D0FFF7DBFEB8F1FF3F02D04046FFF778
:102B8800D5FE7A1C02D03846FFF7D0FE4B1C02D087
:102B98000846FFF7CBFE3068FFF7C6FB242303FB8C
:102BA8000454002384F820306360BDE8F08100BF3E
:102BB800380800201003020000E100E001F0604343
:102BC800B3F1005F2DE9F041074632D11C4B06797D
:102BD800242505FB063598466C6964BB6A61A960C3
:102BE80000684FF49071FFF711FE4FF4AC7138682C
:102BF800FFF70CFE3B686A69A968C3F84415C3F877
:102C0800482501229A606A68BAB9D3F82011D3F826
:102C1800582149B9002AF8D00F20242303FB06863F
:102C280000237361BDE8F081002A14BF0F20002043
:102C3800F3E71020F6E71120F4E72046F2E700BF9B
:102C4800380800200220FEF7E9B8000008B5094B53
:102C58001B7853B10020FEF7AFF80120FEF7ACF85F
:102C68000320BDE80840FEF7A7B8BDE80840FEF716
:102C7800B7B800BF5D080020F8B57B4C237805463F
:102C88001BB100232370FFF7E1FF172D00F28880A6
:102C9800DFE805F00C17174354657680888D888D1A
:102CA800959A9A9A9A9AC4C9D1D9E4E4FFF7CEFFC3
:102CB8006E48FEF745FD6E4B002204461A7020460A
:102CC800F8BD0020FEF750F8F8B10020FEF774F8C0
:102CD800022D0CBF4FF4E1614FF47A61644B1D7013
:102CE8004FF400404FF4FA740025E0FB01454FF41F
:102CF8007A7200232046294604F0F8F8002201469B
:102D08005A48BDE8F840FEF7D9BCFEF741F8022D55
:102D18000CBFC8214FF4C871E0E70020FEF724F883
:102D280040B10020FEF748F84FF44871504B032299
:102D38001A70D5E7FEF72CF8C821F7E70020FEF750
:102D480013F838B10020FEF737F84FF47A61484B92
:102D58000422EDE7FEF71CF84FF4C871F7E70020EE
:102D6800FEF702F848B10020FEF726F8404B05228E
:102D78001A7041F69A110022C2E7FEF709F8F5E742
:102D88000020FEF74BF83A4B06221A70002240F654
:102D9800CD41B5E70020FDF7FBFF354B07221A7040
:102DA80000248CE701202070FEF738F8EEE70120B8
:102DB8002070FEF733F800224FF48041A0E7FEF7B9
:102DC8001EF82B4B0C22EAE72A482B4EFEF7B8FCDC
:102DD800D5F1110504461CD0D8B9012D13D0C8234C
:102DE8005D434FF400474FF4FA7000214FF47A72B4
:102DF8000023C7FB050104F079F8224601461D4867
:102E0800FEF75CFC04460220FDF7C2FF0123337085
:102E180055E70220FDF7D0FF0023F8E7FFF716FF7C
:102E2800134B1222BBE7FFF711FF0020FDF7B0FF9D
:102E38000F4B1322B3E7FFF709FF0120FDF7A8FFA7
:102E48000B4B1422ABE7FFF701FF0020FDF7A0FFB3
:102E58000120FDF79DFF064B1522A0E7FDF7CFFFE8
:102E6800034B1D709CE700BFC8080020A008002085
:102E7800D0080020600800205D080020044B1B6873
:102E8800DB0703D5034B1878FFF7F6BE704700BF82
:102E9800C4080020D00800202DE9F04107460C4660
:102EA800FDF7E0FF20B9012C04D01DD3022C25D05A
:102EB800BDE8F081134D6A782C7842B1124E134860
:102EC80032464FF40041FEF7F9FB00B93770104B5A
:102ED800AA781A70002CEBD00E4B1B68002BE7D099
:102EE8002046BDE8F04118470848FEF729FC054B85
:102EF8009C78074B1B78A342DAD1EBE7014B5C784F
:102F0800E8E700BFC00800205C0800208008002017
:102F1800D1080020CC08002002210078FFF7BCBFB0
:102F280008B9FDF795BF00207047000038B5194B68
:102F38001860194B10F002040546196014D0174B9D
:102F480017480E221A70012140F26662FEF7BCF89B
:102F5800044648B9FEF70CF9044628B90146114A57
:102F68001148FEF799FB0446EB0711D50120FDF740
:102F78007FFF6CB921460D4A0D48FEF78DFB0446CC
:102F880030B90C4A0C480121BDE83840FEF784BB33
:102F9800204638BDC4080020CC080020C008002006
:102FA8006C730000212F000078730000852E00004C
:102FB8007C7300004D2C00007473000008B50020DD
:102FC800FFF7AEFF18B10020FDF7E2FE0120C04375
:102FD800C0B208BD7FB504AA202342F8043D1B49AE
:102FE800054600F0F1FA48B919481A4B1A49C01AAF
:102FF800C008000440F00100FDF750FD039B63B1D9
:10300800124B1E78002446FA04F3DB07204619D534
:10301800FDF7BEFE0134042CF5D1FFF7CFFF0F49B1
:1030280001220870284600F079FA48B90848094B87
:103038000B49C01AC008000440F00100FDF72EFD3E
:1030480004B070BDFDF7B8FEE4E700BFD308002068
:10305800B87100009871000043740000D208002085
:103068005274000082B002AB03E9060002B0704758
:1030780082B002AB03E9060002B070477047000057
:103088002DE9F74FFEF7D8FA08B1FEF787F80021C7
:103098000320FFF74BFF08B1FEF780F84FF400411B
:1030A8000020FDF739FB08B1FEF778F8FDF770FA54
:1030B800414C424B4249E41AE408240444F0030614
:1030C8003046FDF7EBFCFDF781FB0028FBD1012022
:1030D800FDF7CEFE012000F073F928B900F020FBBF
:1030E80000F50340FEF75AF8364800F0DFFA28B931
:1030F80000F016FB00F50340FEF750F8FFF75EFFFF
:10310800314B324918700122002000F007FA40B90B
:103118002F4944F00100FDF7C1FCFDF757FB0028DB
:10312800FBD100F0DFF928B900F0FAFA00F5034006
:10313800FEF734F82749234FDFF8A4903046FDF70F
:10314800ADFCB846FDF742FB05460028FAD120BF82
:103158003B68B3F57A7FF5D3FEF714FB494644F094
:103168000500FDF79BFC3A681B49DFF878A030465C
:10317800FDF798FC7A6819493046FDF793FC00F092
:103188005DFA5FFA85FB584505F1010505D8002071
:10319800FEF7FAFA00F058FAD4E70BF102020BF145
:1031A800120358F82220009258F823305A46514604
:1031B8003046FDF781FCE2E7B87100009871000025
:1031C80080730000F4080020D2080020D3080020F3
:1031D80052740000A7730000CE730000EC73000067
:1031E800A07200000D740000054B1B68082B01BF7E
:1031F800044B1868B0FA80F0400918BF00207047E7
:10320800300100103401001008B54FF0804300224F
:10321800C3F80C21C3F81021C3F838254FF08052A9
:1032280003F54043D2F80414C3F82015D2F8081463
:10323800C3F82415D2F80C14C3F82815D2F81014C2
:10324800C3F82C15D2F81414C3F83015D2F8181492
:10325800C3F83415D2F81C14C3F84015D2F820145A
:10326800C3F84415D2F82414C3F84815D2F8281422
:10327800C3F84C15D2F82C14C3F85015D2F83014F2
:10328800C3F85415D2F83414C3F86015D2F83814BA
:10329800C3F86415D2F83C14C3F86815D2F8401482
:1032A800C3F86C15D2F84424C3F87025FFF79CFFC7
:1032B80010B1384B384A1A60FFF796FF18B1374BF0
:1032C800FB22C3F81825FFF78FFF48B13449354B67
:1032D8000A681B6822F00F0203F00F0313430B6008
:1032E800FFF782FF18B1304B4FF400721A604FF0AD
:1032F8008043D3F80024D20744BF6FF00102C3F81B
:1033080000242A4AD2F8883043F47003C2F888307F
:10331800BFF34F8FBFF36F8F4FF01023D3F8002206
:10332800002A03DBD3F80432002B2FDA204B0122CA
:10333800C3F80425D3F80024002AFBD04FF010224C
:103348001221C2F80012D3F80024002AFBD04FF053
:1033580010231222C3F80422154B1A46D3F800147E
:103368000029FBD00021C3F80415D2F80034002B43
:10337800FBD0BFF34F8F0D490E4BCA6802F4E062D1
:103388001343CB60BFF34F8F00BFFDE70A4B0B4AD7
:103398001A6008BD8C5600404881030000F00040C8
:1033A800E40E0040580200104096024000ED00E094
:1033B80000E001400400FA051C0000200090D00342
:1033C8002DE9F0413F4B404F404D002631460C223D
:1033D80080463F481E603E7003F076FE3D4801F08F
:1033E800CBF82860002834D0042001F03BFB2B6880
:1033F8005C7DA4BB384E3268531E0F2B5ED837490C
:10340800084603F038FE3168344801F00FFB012408
:10341800B8F1010F29D04DD3B8F1020F2FD00523F1
:103428003B7000242B68587D30B302233B70002486
:10343800002001F027FB2B685B7D23B302230120CA
:103448003B7001F03BFB0023254A1846136001F04E
:103458007FF9012300243B702046BDE8F081022358
:10346800B8F1010F34463B70D5D1022001F016FAAD
:103478002B68587D0028D8D101F034FBD8E700200C
:1034880001F00CFACEE7012001F008FB2B685D7D06
:10349800002DD3D1284601F02BFB012001F00EFBB3
:1034A8000F4B28461D6001F053F9002CD1D020465F
:1034B800BDE8F081012001F0F1F9B3E707233B7083
:1034C800A6E700BF840900208009002088090020A1
:1034D800900900203937000030000020200000202B
:1034E8008C09002008B50B4B186878B101F088FAF0
:1034F80080B218B101F032F9012008BD01F086FA56
:103508000028F7D1044B11221A7008BD024B022281
:103518001A7008BD88090020800900200728F8B51E
:1035280015D821B3202A05D9254B06221A70002464
:103538002046F8BD054616460C4601F05BFA0228FF
:103548000BD91F4B092200241A702046F8BD1C4BCA
:10355800042200241A702046F8BD284601F04CFACF
:10356800022809D9164B0A221A700024E0E7144BE6
:1035780003220C461A70DBE701F040FA01281AD939
:1035880001F0D2F94378067043F0010321464370F5
:1035980007463246023003F06EFD3946E8B201F0C4
:1035A800D7F904460028C3D1064803F013F9044BA1
:1035B8000F221A70BCE7024B08221A700024B7E7E2
:1035C80080090020FC00050070B50D46164604462B
:1035D80001F012FA60B17DB1204601F009FA3268B3
:1035E80003789A420DD2134B06221A70002070BD40
:1035F800104B0B221A7070BD0E4B03221A7028460E
:1036080070BD204601F0EAF9044658B10146284643
:1036180011F8022B326003F02EFD204601F08EF9DE
:10362800012070BD044803F0D5F8024B0F221A7030
:10363800204670BD8009002026010500014B18684E
:10364800704700BF30000020174B1A68002A2AD0A4
:10365800012282F310881A68002313605360936074
:103668009364D360D36413611365536153659361A5
:103678009365D361D365136213665362536693628D
:103688009366D362D3661363136753635367936375
:103698009367D363D3671364C2F880305364C2F866
:1036A800843083F3108870478C09002000282ED0BE
:1036B800194B0121186081F310881A6800231360E0
:1036C800536093609364D360D3641361136553614B
:1036D800536593619365D361D3651362136653622F
:1036E800536693629366D362D36613631367536317
:1036F800536793639367D363D3671364C2F88030C7
:103708005364C2F8843083F3108808467047034B2B
:1037180003221A70704700BF8C090020800900201E
:10372800014B1878704700BF80090020704700BF20
:10373800F0B5037883B00446072B00F2C580DFE8B4
:1037480013F03A0066008700B200BF0008000C00C2
:103758002500FFF793FC03B0F0BD644A8379126833
:1037680093420AD2624A12683AB102EB830399681B
:10377800013199605368013353605E4B1B68002B1D
:10378800E9D061792079984703B0F0BD574A837929
:10379800126893420AD2564A12683AB102EB83037E
:1037A800996801319960536801335360524B1B6823
:1037B800002BE6D1CFE74D4A037C126893420AD228
:1037C8004B4A12683AB102EB8303996C0131996450
:1037D80013680133136068460822002103F074FC63
:1037E800667BA168227BE37B6068A77BCDF802102B
:1037F8008DF806208DF807308DF8007001F09EF8DE
:1038080030469DE80600FFF72DFC03B0F0BD684682
:103818000822002103F058FC384B1B685B7D6D467D
:1038280013B9374802F0D6FFA268267B637B60682D
:10383800CDF8022000228DF800208DF8073001F025
:103848007DF8304695E80600FFF712FC03B0F0BD9E
:10385800264A037B126893420AD2254A12683AB173
:1038680002EB8303996C0131996413680133136087
:1038780003220021684603F027FCA37A217AE27A22
:10388800657A8DF800308DF801108DF80220646893
:103898001BB134B3204601F051F828460099FFF7D0
:1038A80099FB03B0F0BD174B5A68197801325A607A
:1038B80000293FF450AF9A685AB1013A9A604AE732
:1038C800FFF734FF03B0F0BD0F4802F083FF03B0E9
:1038D800F0BD00F0DBFF00287FF43BAF00F098FF5D
:1038E80039E70A4802F076FFD4E700BF300000202D
:1038F8008C0900207C0900209C09002088090020F0
:103908003D04050090090020BC040500630405007F
:10391800024A034B0F21117018607047800900207C
:10392800840900202DE9F0475C4BD3F80024012AD4
:1039380086B003D0D3F83435002B36D1584B594CC8
:103948005B681D782369202D8CBF00250125002B7D
:1039580030D002F0B7FE012802D0534802F03AFFF7
:10396800524E33681B7D002B6CD101F05DFE45BBC8
:1039780023784F4A0121022B117001D063688BB163
:1039880002F06CFD054601F09DFBA27D8DF8090053
:10399800062301A88DF808508DF80A208DF8043008
:1039A80002F0C6FB06B0BDE8F0873E4C236900254F
:1039B800002BCED103F0B6F90028CAD10123236128
:1039C800C7E70121084602F0D3FC054600283DD090
:1039D800022824D102F048FD3368278993F916900C
:1039E8006689804602F03AFD054601F06BFBA17D31
:1039F8008DF813000022012301A88DF81090CDF84E
:103A08000880ADF80C70ADF80E608DF811508DF887
:103A180014108DF804208DF8123002F089FB02F0A2
:103A280031FF244B21785A69E0600229626032D064
:103A38008ABB9B68204A0020136002F029FF06B069
:103A4800BDE8F0871D4802F0C5FE8EE702F00CFDC8
:103A58003368B4F8088093F916A06789814602F0A4
:103A6800FDFC064601F02EFBA37D8DF8130001A88E
:103A78008DF810A0CDF80890ADF80C80ADF80E7058
:103A88008DF811608DF804508DF812508DF81430AF
:103A980002F04EFBC3E7DB68CCE700BF0010004034
:103AA800000A0020E809002037070900180A00204A
:103AB800AC090020B4090020A0090020380709003B
:103AC80038B5214D214C01F0AFFD0123204A2B7060
:103AD8002049D2F83035096923F0FF030B43C2F8B7
:103AE80030350023236102F0EDFD08BB02F05CFBDA
:103AF800012803D902F0C4FC606008B3022001F079
:103B080065FC002001F0CEFC02F0DCFD032802D0A9
:103B1800114802F05FFE2B78012B02D00F4802F00B
:103B280059FE022100220E4B29702261E36038BD44
:103B380002F0C8FD0328E1D00A4802F04BFEDDE799
:103B4800094802F047FED9E7AD090020000A002025
:103B580000100040B4090020FC0509000206090015
:103B6800753B0000F4050900EF0509002DE9F04157
:103B7800664B674CD3F80024012A88B03AD0D3F8B2
:103B88003435002B36D0634E634D33785F4A0320BB
:103B9800002128702160022BD2F8087401D07368C4
:103BA80073B101F08FFAB27D8DF81100062303A8D6
:103BB8008DF812208DF810708DF80C3002F0B8FADC
:103BC8000023019300931A461946184602F0BCFCDC
:103BD800042802D0514802F0FDFD2668002E00F0AE
:103BE800898001234E4A6375042322612B7008B033
:103BF800BDE8F08163681B78202BC4D8464D434B41
:103C08000321002229702260D3F80864D3F808241D
:103C1800C3F82C25D3F80C24019402A801230090A2
:103C28003146184602F090FC032857D801A353F8F0
:103C380020F000BFDD3C0000953C00004D3C00003A
:103C4800E33B0000029B002B5BD0304602F082FD74
:103C5800002847D0334B029F1B6893F9168001F068
:103C680031FA2C4B8DF81700997D8DF814800222BB
:103C7800012303A804978DF815608DF818108DF8A6
:103C88000C208DF8163002F053FAA6E7029B13B108
:103C9800254802F09FFD304602F05CFD30B3214B11
:103CA8001B6893F9167001F00DFA1A4B8DF817007E
:103CB800997D8DF814700023022203A88DF81560F1
:103CC8008DF818108DF80C2004938DF8163002F03A
:103CD8002FFA82E7154802F07DFD7EE7144802F0CE
:103CE80079FD7AE7134802F075FDB3E7124802F050
:103CF80071FDD4E701F098FC66752661FFF7E0FED8
:103D080075E70E4802F066FD9FE700BF001000400F
:103D1800000A0020E8090020AD0900205306090028
:103D2800D1440000180A00202806090033060900BB
:103D38004406090038060900290609003706090063
:103D480008B502F0C7FF074B1B7F1BB94FF0804334
:103D580001225A60002002F015FD034B00225A6030
:103D680008BD00BFB4090020E809002030B589B0BB
:103D780002F0D2FF012837D002F0ACFF1E4B1B7FA8
:103D88006BB300201D4D02F0FDFC00236B6001F0B9
:103D98004BFC08A80523002400F8143DAC706C7592
:103DA80002F0C6F9164A174B14704FF44072C3F864
:103DB800082502F087FC80B1022817D903280CD106
:103DC80001940094234622462146204602F0BCFB7B
:103DD800042802D00C4802F0FDFC09B030BD4FF0B9
:103DE800804301225A60CCE7044DD0E721462046A3
:103DF80002F0BEFAECE700BFB4090020E809002091
:103E0800AD09002000F00140480209002DE9F04FFB
:103E1800E64DE74FE74AE84E4FF440780024012387
:103E2800C7F85445C7F80885C5F8FC4FC5F8FC3FE6
:103E3800D5F8143523F48073C5F81435D5F814353E
:103E480023F00F0343F00603C5F81435D5F81435ED
:103E580023F4702343F44033C5F81435D5F81835E6
:103E680023F00073C5F81835D5F8183543F080737A
:103E7800C5F81835D5F8183523F0FF0343F02003AB
:103E8800C5F81835D5F81835022123F47F4387B0D3
:103E9800C5F81835C2F8801102F0E8FFC74AC84BC8
:103EA800C7F85C05C7F85825C7F804851968C548D8
:103EB80001F00EF9C04AC04B526AC3491B6A086038
:103EC800110A180A96F81DA04FEAC31B0E460BF4F8
:103ED800FF474FEAC01C4FEAC61B0BF4FF490CF41E
:103EE800FF4CC0F3C01B4BEA0C0B4FEA401C0CF014
:103EF800400E4BEA0E0CC3F3C01E4EEA070B4FEA06
:103F0800431E0EF040074BEA070EC6F3C01B4BEAF0
:103F1800090B4FEA46194FEAC21809F040094BEA63
:103F2800090B08F4FF48C2F3C019190C49EA08083C
:103F38004FEA42190196CF01160C09F0400948EAE8
:103F4800090807F4FF474FEAC619039709F4FF4920
:103F5800D5F81875CDF814904FEAC00909F0200972
:103F68004CEA090C4FEAC309039E09F0200927F41B
:103F7800E02747EA0A474EEA090EC1F3C01ACDF80E
:103F880008E04AEA060A4FEA411E019E0EF0400E7A
:103F98004AEA0E0A4FEAC60E0EF0200E4BEA0E0B46
:103FA8004FEAC20E0EF0200E48EA0E0ECDF810E0D1
:103FB800C5F81875470007F010074CEA070C4708C2
:103FC80007F008074CEA070CC70807F00407400980
:103FD8004CEA070700F00200029E074358004FEA28
:103FE800530C00F0100030430CF0080C40EA0C00B1
:103FF8004FEAD30C4FEA13690CF0040C5B0940EA52
:104008000C0003F0020303431B06FFB243EA074711
:10401800CB0003F020034AEA030A4B00480803F0E8
:1040280010034AEA030300F008000343C808039793
:1040380000F004004F09034307F002014FEA49105A
:10404800160C194300F0400305980296C6F3C017F2
:104058000743700100F0400007434FEAE91040EAC7
:10406800C91018434FEA4208049B019E08F0100843
:1040780043EA0808029BDB0003F020031F43039B6D
:10408800C9B243EA01214FEAC90303F020031843E8
:104098004FEA490303F0100318434FEA590303F0AA
:1040A800080318434FEAD90303F004034FEA5919E8
:1040B8004FEA126E034309F002094FEA4E1A43EA27
:1040C80009094FEAEE1343EACE134FEA460C0AF009
:1040D800400A43EA0A0A0CF0100C73084BEA0C0C6D
:1040E80003F008034CEA030C530803F0080348EAFA
:1040F8000308029B5B0003F010031F434FEACE0343
:1041080003F020034AEA030AF30803F004034FEA22
:10411800561B4CEA030C029ED30803F00403520911
:1041280048EA03080BF0020002F00202730848EAAA
:10413800020203F008034CEA00001F43C0B24FEA32
:104148004E03120603F0100342EA0042F0084AEA5E
:10415800030A00F004007309384303F0020318430C
:104168004FEA5E034FEADE0703F008034AEA030357
:1041780007F004074FEA5E1E3B430EF0020EC0B282
:1041880043EA0E035FFA89F942EA0022DBB249EA00
:1041980001011343C5F81C15C5F82035064BA84680
:1041A80003F128094FF0FF0A10E000BF001000409B
:1041B80000F0014000E100E0B409002004110040D3
:1041C800B0090020000A0020180A002019F8013B55
:1041D80003F00100D9095A0141EAC01102F0400276
:1041E800D800114300F020005A00014302F01002E9
:1041F80058080A4300F00800D908024301F00401F6
:1042080058090A4304F0030700F00201FF000A43BB
:104218000AFA07FEBA40032C6FEA0E0E13462FD98E
:10422800D8F828350EEA0303C8F82835D8F8283511
:1042380001341A43082CC8F82825C7D1274B274A28
:1042480093F83030C8F80C35D8F8343592F8312066
:1042580023F0FF03012AC8F8343531D02BD3022AC2
:104268001BD01F4802F0B6FA1C4B93F832300BB142
:10427800012B02D11B4AC2F8103507B0BDE8F08FF8
:10428800D8F824250EEA0202C8F82425D8F824759F
:104298003B430134C8F8243598E7D8F83435124A36
:1042A80043F002034FF6FF71C8F83435C8F83C15DF
:1042B800C8F83825D8E7D8F83435C8F83435D3E7FE
:1042C800D8F8343540F2071243F00103C8F8343502
:1042D800C8F83CA5C8F83825C6E700BFB4090020CF
:1042E8002E040900001000402110010070B5394C5F
:1042F80023786578AB4288B046D02BB34DB3364BA4
:10430800364E0025C3F8545501F08EF923783560F0
:10431800012B75603561B560F56038D0022B3DD052
:10432800636873B12E4BDB682E4908A8042200F895
:10433800142D62780B60227001F0FAFE012008B09B
:1043480070BD274B9B68EFE7FFF760FD6578002D90
:10435800D5D1214B4FF44072C3F8082502F0B2F9C9
:104368000028CCD002282BD90328C8D10195009564
:104378002B462A462946284602F0E6F80428BED0ED
:10438800194802F027FABAE7002008B070BD02F019
:1043980099F9D0B92378022BC4D0C1E701F044F9C8
:1043A800124B35611D7002F08DF90328F2D1019589
:1043B80000952B462A462946284602F0C5F8E9E723
:1043C8002946284601F0D4FFD8E72946284601F0B7
:1043D800CFFFDFE7E809002000F00140000A0020D5
:1043E800B4090020A009002048020900AD090020F6
:1043F8002DE9F0412B4F2C4D2C4E4FF00008C7F8FB
:10440800088002F02BF8C5F82C05D5F8304502F0E5
:1044180025F8012303FA00F024F0FF040443C5F84B
:10442800304502F021F8306002F024F8204A214B90
:1044380082F80080F360706002F0FAF9C5F80805A8
:1044480002F020FAB87502F03DF9012807D002F011
:1044580039F9022802D0184802F0BCF9002000F00F
:10446800B5FF02F007FD154B154AC3F85005126851
:10447800144C5268C3F85425206818B1037853B90E
:1044880003790BB9BDE8F08100F00AFE2068BDE8A9
:10449800F04100F0E7BD02F0EDFC216800F080FD7E
:1044A8002068EDE7E809002000100040000A00201D
:1044B800AC0900202D3900009706090000F00140E2
:1044C800180A0020B009002038B5224C224D0523D7
:1044D800237001F0A9F80123204A23702049D2F85B
:1044E8003035096923F0FF030B43C2F83035002348
:1044F8002B6102F0E7F808BB01F056FE012803D94A
:1045080001F0BEFF686008B3022000F05FFF0020E2
:1045180000F0C8FF02F0D6F8032802D0114802F0D4
:1045280059F92378012B02D00F4802F053F90221E0
:1045380000220E4B21702A61EB6038BD02F0C2F8F0
:104548000328E1D00A4802F045F9DDE7094802F0FE
:1045580041F9D9E7AD090020000A00200010004009
:10456800B4090020FC05090002060900753B00009B
:10457800F4050900EF0509002DE9F04180460127FF
:1045880087F31088654D664B664E6F7000240322D2
:10459800AC602A701C605C609C60DC601C611C75EF
:1045A800AC706C60EC602C612C756C75B4607460D8
:1045B80002F04CFB404601F09FFD01F045FE20460D
:1045C80002F0D8F8304602F007F9574B202283F85A
:1045D800084383F8014383F8152387F310882B7861
:1045E800BB4207D06B7D6F70002B6FD002F094FB3D
:1045F800012871D04D4C002282F3108884F83020B5
:10460800FF22226106224A4F2B7884F82D200320AE
:1046180005211E22676284F82A000727082084F8EB
:104628002C10626169210222DFF820E184F82E70E3
:1046380084F82F004FF416770420216093424FF03E
:104648000101C4F820E06760607784F82B0084F8E3
:10465800281084F8321084F8292084F83120E26088
:1046680037D06B680F22002B0CBF13460223A260C1
:104678000022012110463360628322772176617619
:1046880002F072F86B78012B02D02A4802F0A2F8E7
:1046980000242949294AAC6001230C6014702B704E
:1046A800AC706C60EC602C612C756C75FFF7AEFB20
:1046B8001D4B4FF480714FF40012C3F88011C3F8FA
:1046C800802184F310881548BDE8F081FFF70EFEBD
:1046D80090E70F22A260CBE702F068F8D0B9134C3C
:1046E80017480022642102F023FB237F7BB94FF097
:1046F8008042144801210160C2F80031116000BFF6
:1047080000BF00BF00BFD2F80031002BFBD002F081
:10471800D5FA70E70C4802F05DF8E0E7E8090020F8
:10472800000A0020A009002000E100E0B4090020F0
:1047380005080B0E9F020900B0090020AC090020F3
:10474800C167000014050040B406090004070A0DFB
:10475800014B1860704700BFB009002038B5234CE2
:10476800637D03B138BD224DFFF750FBAB68002BCA
:1047780034D06B6873B302F013F838BB002002F032
:1047880001F80123637502F0C7FA0128EAD102F0A3
:104798000DF838BB00226421164802F0C9FA164BFE
:1047A8001B7F7BB94FF08042144801210160C2F899
:1047B8000031116000BF00BF00BF00BFD2F8003158
:1047C800002BFBD0BDE8384002F078BA0C4802F064
:1047D80001F8D3E70B4801F0FDFFCCE70A4801F0E8
:1047E800F9FFC6E7094801F0F5FFD3E7E80900201B
:1047F800A0090020C1670000B4090020140500408A
:10480800D4020900CF020900CE020900B40609004B
:1048180008B5012282F31088174B597D09B19978A0
:1048280019B1002383F3108808BD9A7002F074FA56
:104838000128F6D101F0BAFFD0B9002264210F484F
:1048480002F076FA0E4B1B7F7BB94FF080420D4881
:1048580001210160C2F80031116000BF00BF00BF34
:1048680000BFD2F80031002BFBD002F027FAD8E7BE
:10487800054801F0AFFFE0E7E8090020C167000044
:10488800B409002014050040B4060900024B587D05
:1048980080F00100704700BFE809002008B5012337
:1048A80083F310881B4B1A78824206D05A7D5870C1
:1048B8003AB102F031FA012809D0002383F31088B5
:1048C80008BDFFF713FD002383F3108808BD01F02E
:1048D8006DFFD0B9002264210F4802F029FA0F4B6E
:1048E8001B7F7BB94FF080420D4801210160C2F85F
:1048F8000031116000BF00BF00BF00BFD2F8003117
:10490800002BFBD002F0DAF9D7E7064801F062FF86
:10491800E0E700BFE8090020C1670000B4090020F3
:1049280014050040B406090008B5012383F3108874
:1049380001F014FF002383F3108808BD08B5012394
:1049480083F3108801F00CFF002383F3108808BD5F
:1049580010B5012383F3108801F0BAFE044648B16C
:10496800194B9A780AB95B7D43B9002383F3108801
:10497800204610BD80F31088204610BD02F0CCF907
:104988000128F2D101F012FFD0B9002264210F48AA
:1049980002F0CEF90E4B1B7F7BB94FF080420D48D9
:1049A80001210160C2F80031116000BF00BF00BFE3
:1049B80000BFD2F80031002BFBD002F07FF9D4E71A
:1049C800054801F007FFE0E7E8090020C16700009B
:1049D800B409002014050040B406090008B50123F5
:1049E80083F3108801F0B2FE002383F3108808BD1A
:1049F80001F0A8BE01F0A4BE01F0ACBE01F0B2BE49
:104A0800014B186A704700BFB4090020072810B589
:104A1800044602D9034801F0DDFE0348204490F81B
:104A2800280010BDAD030900B409002038B50546BB
:104A38000C4641B165B1084B9D605C600020BDE843
:104A4800384001F00BBF054801F0C4FE002DF2D13B
:104A5800034801F0BFFEEEE7A0090020B3030900F8
:104A6800B4030900054A0649D2F81835487723F4F3
:104A7800E02343EA0043C2F81835704700100040AD
:104A8800B4090020034A044B82F83000C3F80C052F
:104A9800704700BFB409002000100040054B83F8A0
:104AA800320008B1012803D1034BC3F81005704741
:104AB800704700BFB40900200010004010B5064B35
:104AC8001B68044613B1054B1C7510BD044801F062
:104AD80081FE024B1C7510BD180A0020000A002038
:104AE8006E040900014B1876704700BFB409002016
:104AF800014B1877704700BFB40900202DE9F04733
:104B0800944C236986B0002B52D06368BBB12278DD
:104B1800013B022A636016D0002B00F0CF808E4D37
:104B28008E4AA378E9681160002B00F0CF8001F06D
:104B380067FE637D002B65D0FFF718F962E02378E4
:104B4800022B40F0BB80844D844AA378E968116049
:104B5800002BECD1824E3378033B012B40F2DB80F3
:104B6800804F01F04DFED7F8088501F061FE8045C1
:104B780000F09F8001F05CFEC7F8080501F082FE96
:104B8800A075FEF79DFF00206D6801F0FBFD21690F
:104B98008D4203D8744801F01DFE21697348691AD3
:104BA800012202F0C5F80023236106B0BDE8F087B2
:104BB80002F0B8F80028A8D12378012B00F0A580CE
:104BC800022B00F0868001F01BFE6368EBB12278AF
:104BD800013B022A636000D0D3B15F4D5F4AA678DB
:104BE800EB681360DEB1637D002B40F0918001F02B
:104BF800DBFA012840F2838006A8032300F8143D5D
:104C080001F096FA06B0BDE8F0872378022BE4D0CD
:104C1800514D524AA678AB681360002EE3D1FFF7D6
:104C280065FB0746002840F082802678012E00F0B8
:104C3800A18073D3022E40F00C814A4ED6F8087535
:104C480001F0F6FD874200F0088101F0F1FDC6F899
:104C5800080501F017FEA075FEF732FF00206E6808
:104C680001F090FD21698E4240F2EF803F48711AB1
:104C7800012202F05DF8002323616B7E012BB6D17F
:104C88002378022BB3D06268002AB0D153B1012B2C
:104C980040F01A8101F016FD0028A8D101F000FBB0
:104CA8000028A4D102F038F80128A0D0FFF748F86E
:104CB8009DE73378002B3FF464AF64E7264D274A1D
:104CC800A378A9681160002B7FF431AF01F098FD3B
:104CD80059E7234B1878033801288CBF002001209E
:104CE80000283FF470AF1C4B20485B685B081946EE
:104CF8000122236102F01CF806B0BDE8F0871C48C9
:104D080001F068FD06B0BDE8F08700F081FCE7E738
:104D1800FFF72CF86BE76B681448E7E76E6801F05B
:104D280031FD23699E4240F2908021699EE730461A
:104D38006D6801F027FD21698D4203D80A4801F00A
:104D480049FD21690948691A012201F0F1FF002390
:104D580023614CE7E8090020B4090020A0090020DD
:104D6800AD09002000100040D6060900C167000008
:104D78000605090000F058FC01F0A4FC002872D0D8
:104D88006B8B1BB122899A4280F0A28001F0CAFF86
:104D980000287ED15E4BD3F8086501F049FD8642B4
:104DA80002D06389013363815A4E3378B3B92378CB
:104DB800022B01D063688BB101F050FB074600F06D
:104DC80081F9A27D8DF80900072301A88DF80870E4
:104DD8008DF80A208DF8043001F0AAF90023337009
:104DE80001F026FD4A4BC3F8080501F04BFDA075FC
:104DF80001F068FC012807D001F064FC022802D009
:104E0800454801F0E7FC002000F0E0FA02F032F833
:104E1800424B434AC3F850051268424E5268C3F8E1
:104E28005425306848B10378002B36D1037923B173
:104E380000F036F9306800F015F901202E6801F00D
:104E4800A1FC21698E423FF611AF374801F0C2FC40
:104E58006BE7364801F0BEFC0FE7354B1B78002B9B
:104E68003FF4FAAEFAE601F09FF90128E5D9237874
:104E7800022B19D06668BEB9E06801F0EFFC304635
:104E880001F006FD01F012FA0028D6D0FFF7B0FABB
:104E9800D3E7284801F09EFC7CE701F0EBFF31687E
:104EA80000F07EF83068C1E701F006FD0028C4D1A3
:104EB8002B7E23B901F0E6FCE3689842BDD101F0EE
:104EC800F5F90028B9D0E1E71B4801F083FC8EE62C
:104ED8003146384601F04CFA01F0C6FAB4F80890A9
:104EE800B4F80A80824601F0B9FA074600F0EAF8F9
:104EF8008DF8110001A8CDF808A0ADF80C90ADF818
:104F08000E808DF810708DF8046001F011F994E7A7
:104F180000100040AC0900209706090000F001408D
:104F2800180A0020B0090020D6060900D00409009C
:104F3800AD0900207C050900EA04090038B5124BC8
:104F4800124D1B685B7D2BB1012000F0ABFA2B8959
:104F580001332B810E4A0F4B0020C2F8540593E809
:104F68001200641A01F00EFC29698C4203D80A4821
:104F780001F030FC29690948611A012201F0D8FEC4
:104F880000232B6138BD00BF180A0020E809002063
:104F980000F00140B4090020D6060900C1670000EE
:104FA80070B48B682A4A0024C3F840410B7B8C6894
:104FB800A23304F5A07442F833400B7B4C78CD78CB
:104FC800A233002C36D0234C02EBC30304EB850438
:104FD8005C604A7B1E4B204C204EA232002543F8D1
:104FE80032004A7B8868A23203EBC2025060C4F8E0
:104FF8000C51C4F810518A7BA23243F832608A7B84
:105008004878CC78A232E0B9124803EBC20300EB2F
:10501800840058600B7B487B8D7B0D4C012202FA83
:1050280003F302FA00F10B43AA401343C4F8043512
:1050380070BC70470A4C02EBC30304EB85045C6048
:10504800C7E7074803EBC20300EB84005860E1E7B9
:1050580000F0014030600040001000400C1100409A
:105068006060004083680C4A002110B4C3F8401106
:10507800C37B0A4CA233012142F83340C37B8468C6
:10508800A23302EBC3035C60C37B01FA03F3C2F8EB
:1050980004355DF8044B704700F0014010110040E2
:1050A800437933B9C379064A0C33012142F82310F6
:1050B8007047C379024A1833012142F82310704718
:1050C80000600040014B1878704700BF200A00209C
:1050D800F0B5974A974B984C0225C2F880500026A5
:1050E800C2F880504FF0FF37C2F880510122C3F850
:1050F8000873C3F80062C3F810611A619A612378D3
:10510800934200F02581023B012B40F2D480013A02
:1051180000BF00BF00BF00BF00BF00BF00BF00BF8F
:1051280000BF00BF00BF00BF00BF00BF00BF00BF7F
:1051380000BF00BF00BF00BF00BF00BF00BF00BF6F
:1051480000BF00BF00BF00BF00BF00BF00BF00BF5F
:1051580000BF00BF00BF00BF00BF00BF00BF00BF4F
:1051680000BF00BF00BF00BF00BF00BF00BF00BF3F
:1051780000BF00BF00BF00BF00BF00BF00BF00BF2F
:1051880000BF00BFC3D16B4A694D6C4FDFF8B8E16F
:10519800DFF8B8C100234FF0FF36C2F81031C2F86B
:1051A8000032C2F808630226C2F80C31C5F88061E3
:1051B800C2F80031C2F81031C2F8043103222E605F
:1051C800396062705E495F4A2370CCF80000CEF8FF
:1051D8006415CEF86025D1F86027636022F08072EC
:1051E80022F0010242F08072C1F860272E603A680E
:1051F800236123756375A375002A53D01379002B97
:1052080052D0936803200421C3F80805C3F8101589
:10521800117C002040F20115C1F181010124C3F87D
:105228004015C3F80052C3F80405DC60C3F8400118
:105238001379DBB1D379917950799B0003F18043DD
:10524800090203F5C04301F47C5141F40031C3F86D
:105258001015D3F8101508B941F48011C3F81015CA
:10526800D3F8101541F00301C3F810151378CBB12A
:10527800D378917850789B0003F180430A0203F5B4
:10528800C04302F47C5242F40032C3F81025D3F82C
:10529800102568B1C3F81025D3F8102542F0030291
:1052A800C3F810252448F0BD1378002BFAD0A8E7DE
:1052B80042F48012EEE7013D00BF00BF00BF00BF0F
:1052C80000BF00BF00BF00BF00BF00BF00BF00BFDE
:1052D80000BF00BF00BF00BF00BF00BF00BF00BFCE
:1052E80000BF00BF00BF00BF00BF00BF00BF00BFBE
:1052F80000BF00BF00BF00BF00BF00BF00BF00BFAE
:1053080000BF00BF00BF00BF00BF00BF00BF00BF9D
:1053180000BF00BF00BF00BF00BF00BF00BF00BF8D
:1053280000BF00BF00BF00BF00BF00BFC3D12AE756
:1053380000E100E000100040240A0020400A00209C
:10534800141000400411004000F001401C0A002025
:105358000623013B00BF00BF00BF00BF00BF00BF66
:1053680000BF00BF00BF00BF00BF00BF00BF00BF3D
:1053780000BF00BF00BF00BF00BF00BF00BF00BF2D
:1053880000BF00BF00BF00BF00BF00BF00BF00BF1D
:1053980000BF00BF00BF00BF00BF00BF00BF00BF0D
:1053A80000BF00BF00BF00BF00BF00BF00BF00BFFD
:1053B80000BF00BF00BF00BF00BF00BF00BF00BFED
:1053C80000BF00BF00BF00BFC3D1DCE62DE9F84332
:1053D8002D4A2E4BDFF8C8802D4C2E4E4FF0FF354E
:1053E8000221C2F80853C3F88011D8F80010607081
:1053F80000236375D1F800C0C4F808C00701D1F8CC
:1054080004E0F559C4F80CE002282361A361656043
:1054180006EB070921D8054699F80B0099F808907A
:10542800C2F80092C2F80C31C2F81031C8B9C2F8FB
:1054380004C5D2F8043503B3F319134A5B7AC2F8EA
:1054480004330B7D4BB1022D07D102F5F0324FF436
:1054580080610023C2F80415A37501236375BDE8B4
:10546800F883C2F804E5D2F80435002BE4D10A48E1
:1054780001F0B0F9D8F80010DEE7084801F0AAF901
:10548800D8F80010D8E700BF0010004000E100E0A5
:10549800240A002064740000A1020A009C020A0089
:1054A8001C0A0020F8B54C4C637D65780646002B35
:1054B8002FD0237D4BBB01220023022D227563755B
:1054C8001ED856B9454B1B6813B11A79002A33D137
:1054D80043492B010122CB581A606B1E012B25D999
:1054E800404B1B681B7D53B1022D08D13E4BD3F8AE
:1054F80004355B0516D53D4BD3F804356BB1F8BDC3
:105508003B48BDE8F84001F065B93A4801F062F956
:10551800D1E7394801F05EF9CBE73848BDE8F840F3
:1055280001F058B9364801F055F9E4E72C4B03EB84
:1055380005139B7A2370D3E79A682B4FC2F8406112
:10554800197B9868A23100F5A07047F831001A7BE2
:105558005979D879A232002930D12A4907EBC202F9
:1055680001EB80005060214A1F4927480026C2F8F5
:105578000C615A7BA23241F832005A7B5879DE79A5
:10558800A23210BB214801EBC20200EB860050603A
:105598001A7B597B144E012000FA01F100FA02F23D
:1055A8000A434FF0A041C6F80425D1F8102599798F
:1055B800CA40D2075CBF9B68186089E7134907EBAC
:1055C800C20201EB80005060CDE70E4801EBC20239
:1055D80000EB86005060DBE7240A0020400A002028
:1055E800647400001C0A002000F001400010004014
:1055F800DD020A00B9020A00B8020A00E3020A0042
:10560800E2020A00606000400C1100403060004077
:10561800044BD3F80401A0F10100B0FA80F040096E
:10562800704700BF0010004070B4784B784D79493E
:105638000122022000244FF0FF36C5F88000C5F88B
:105648008001C3F80863C3F80042C3F810411A6127
:105658009A610B78934200F09B80023B012B5AD948
:10566800013A00BF00BF00BF00BF00BF00BF00BFBE
:1056780000BF00BF00BF00BF00BF00BF00BF00BF2A
:1056880000BF00BF00BF00BF00BF00BF00BF00BF1A
:1056980000BF00BF00BF00BF00BF00BF00BF00BF0A
:1056A80000BF00BF00BF00BF00BF00BF00BF00BFFA
:1056B80000BF00BF00BF00BF00BF00BF00BF00BFEA
:1056C80000BF00BF00BF00BF00BF00BF00BF00BFDA
:1056D80000BF00BF00BFC3D14C4A4D48002302247D
:1056E8004FF0FF360325C2F810314B750B704B6035
:1056F800C2F800320B75C2F80863C2F80C314D705D
:10570800C0F88041C2F80031C2F81031C2F8043143
:10571800046070BC7047013800BF00BF00BF00BF05
:1057280000BF00BF00BF00BF00BF00BF00BF00BF79
:1057380000BF00BF00BF00BF00BF00BF00BF00BF69
:1057480000BF00BF00BF00BF00BF00BF00BF00BF59
:1057580000BF00BF00BF00BF00BF00BF00BF00BF49
:1057680000BF00BF00BF00BF00BF00BF00BF00BF39
:1057780000BF00BF00BF00BF00BF00BF00BF00BF29
:1057880000BF00BF00BF00BF00BF00BFC3D1A3E779
:105798000623013B00BF00BF00BF00BF00BF00BF22
:1057A80000BF00BF00BF00BF00BF00BF00BF00BFF9
:1057B80000BF00BF00BF00BF00BF00BF00BF00BFE9
:1057C80000BF00BF00BF00BF00BF00BF00BF00BFD9
:1057D80000BF00BF00BF00BF00BF00BF00BF00BFC9
:1057E80000BF00BF00BF00BF00BF00BF00BF00BFB9
:1057F80000BF00BF00BF00BF00BF00BF00BF00BFA9
:1058080000BF00BF00BF00BFC3D165E70010004064
:1058180000E100E0240A00202DE9F041B24C2369A0
:10582800627D657801332361002A40F0C8802378BF
:10583800032B00F0CB80022D00F22C81012D56D0D5
:10584800022D00F03A816278A84B120199180D7B5D
:10585800002D40F02B811344A54A9B7A2370002128
:10586800032BC2F8001200F03781A24B4FF0FF372C
:1058780003260220C2F80873C2F80C116670C3F838
:1058880080019B4A9C4E0023C2F80031C2F81031B7
:10589800C2F80431326823751269636002B1904717
:1058A800002D40F0FC80954B1B68002B00F0858094
:1058B8001A79002A00F081809A7B914802F51172CA
:1058C800002440F82240DA7B02F51172012140F8E9
:1058D80022405A7B9C7BDD7B01FA02F301FA04F239
:1058E8001343A9400B43C0F80835BDE8F08123698C
:1058F800012B00F0B182022B40F018817C4BD3F8C9
:105908000C31012B02D07F4800F064FF784BD3F8AC
:105918001031012B02D07C4800F05CFF744BD3F8A7
:105928000031012B02D0794800F054FF704BD3F8B6
:105938000431002B40F0A8836D4A704800230226EA
:1059480001210825C2F80C31C2F81031C2F8003123
:10595800C2F80431C2F80831C2F80062C2F808136C
:10596800C2F8045302682375032063602070D2B123
:105978001079002800F06883947B614804F511745D
:1059880040F82430D47B04F5117440F82430537B5C
:10599800947BD27B01FA03F301FA04F42343914088
:1059A8000B43C0F80835544C23681A690AB190476C
:1059B80023689B68002B40F0F780BDE8F0815448CD
:1059C80000F008FF2378032B7FF435AF484ED6F854
:1059D8000C31002B3FF42FAF012D00F04681022D32
:1059E80040F03E812369022B00F0E180494800F035
:1059F800F1FE2369012B00F0EB81022B00F0D78028
:105A0800032B64D1D6F80C31012B02D0424800F0A8
:105A1800E1FE374BD3F81031012B02D03F4800F09C
:105A2800D9FE334BD3F80031012B02D03C4800F0AB
:105A3800D1FE2F4B314900224FF0FF30C3F80C2123
:105A4800C3F81021C3F80021C3F80421C3F80803E0
:105A5800C3F800220B687BB11A786AB15A7B987B2D
:105A6800DE7B274D012101FA02F301FA00F213430C
:105A7800B1400B43C5F808351F4A00231268237547
:105A880012692370032163606170002A95D0BDE814
:105A9800F04110472348BDE8F04100F09BBE336851
:105AA8009B68002B3FF4FFAE9847FCE61049D1F8FD
:105AB8000C51003518BF0125CDE62369012B00F0F4
:105AC8001D81022B00F07581032B00F01081164810
